:100DD3003C473EBBB6D3ADCAB9D3C3003C473ED6AE
:100DE300F7C8CBA3ACCED2CFC8CDCBCFC2C1CB003B
:100DF30047006100620063006400650066006700ED
:100E0300680069006A006B006C006D006E006F0083
:090E130070007100720073000010
:06000E0001590001580039
:100C4B00E4F5467592FFF591C294C295C296C29790
:100C5B00120FA9120F0D120E60120F39E47859F60C
:100C6B007BFF7A0D79D3120F60C3E55794F4E556E9
:100C7B00648094814012E4F556F557F558D2C27B47
:100C8B00FF7A0D79DF120F607859E61460DB24F1DF
:100C9B00601824DF60D32431702078597601120D4F
:100CAB002AEF70C57859763180BF120006785BEF5A
:100CBB00F6120634E47859F680AFE47859F680A939
:100FA900B2C2120FEFB2C2120FEFB2C2120FEFB2FA
:0C0FB900C2120FEFB2C2120FEFB2C22240
:100F0D007580FFE4F59075A0FF75B0FF75C0FF53B8
:100F1D008E7F438901F58A758C28C28DD28CD2A91A
:0C0F2D00C2C3D289D2A8D2AF75C13D2248
:0A0FFC0000007F057E49DEFEDFFCE9
:0110060022C7
:080F85008F518E508D4F8C4EF0
:100F8D00E4F552F553F554F555784E74FF120835C6
:0B0F9D00EC4D4E4F6005120FFC80EE83
:010FA8002226
:0C0FEF007F117ED07D1BDDFEDEFCDFFAF2
:010FFB0022D3
:03000300020EA149
:100EA100C0E0C0F0C083C082C0D075D000C000C017
:100EB10001C002C003C004C005C006C0071209F189
:100EC100D007D006D005D004D003D002D001D00085
:0B0ED100D0D0D082D083D0F0D0E0322F
:100634008F47EF7013755801F556F5577BFF7A0D08
:1006440079F3120F60C2C222E55864016003020804
:100654000BE54712085306F10107010207110407CD
:10066400211407311507411607511707611807713F
:1006740019077F1A07881B07951C07A21D07AF1EC1
:1006840007BC1F07C92007D62107E32207F0230769
:10069400FD2407FD2507FD2607FD2707FD2807FD87
:1006A4002907FD2A07FD2B07FD2C07FD2D07FD2E2D
:1006B40007FD2F07FD3007FD3107FD3207FD330726
:1006C400FD3407FD3507FD3607FD3707FD3807FD07
:1006D4003907FD3A07FD3B07FD3C07FD3D07FD3E9D
:1006E40007FD3F07FD4007FD410000080BE4F556F8
:1006F400F557D2977BFF7A0D79F5020808E4F55691
:10070400F557C2977BFF7A0D79F7020808E4F5568E
:10071400F557D2967BFF7A0D79F9020808E4F5566D
:10072400F557C2967BFF7A0D79FB020808E4F5566B
:10073400F557D2957BFF7A0D79FD020808E4F5564A
:10074400F557C2957BFF7A0D79FF020808E4F55648
:10075400F557D2947BFF7A0E7901020808E4F55626
:10076400F557C2947BFF7A0E7903020808E4F55624
:10077400F5577BFF7A0E79050208087BFF7A0E791C
:1007840007020808E4F556F5577BFF7A0E790980CD
:1007940073E4F556F5577BFF7A0E790B8066E4F522
:1007A40056F5577BFF7A0E790D8059E4F556F557C7
:1007B4007BFF7A0E790F804CE4F556F5577BFF7A70
:1007C4000E7911803FE4F556F5577BFF7A0E7913C5
:1007D4008032E4F556F5577BFF7A0E79158025E4CF
:1007E400F556F5577BFF7A0E79178018E4F556F520
:1007F400577BFF7A0E7919800BE4F556F5577BFF8A
:080804007A0E791B120F60222D
:03000B00020FC51C
:100FC500C0E0758A00758C2875C13DE558640170CF
:0C0FD500080557E55770020556D0E032C1
:100026006A696520676500000000000000000000A6
:1000360000000000000000000000000000006461F5
:10004600206B616920686F6E672064656E670000CB
:100056000000000000000000000000006775616EEF
:1000660020626920686F6E672064656E6700000015
:10007600000000000000000000006461206B616960
:10008600206C762064656E670000000000000000AA
:1000960000000000000000006775616E20626920A4
:1000A6006C762064656E67000000000000000000AA
:1000B6000000000000006461206B6169206C616EC5
:1000C6002064656E6700000000000000000000006C
:1000D600000000006775616E206269206C616E2009
:1000E6007869616E670000000000000000000000F3
:1000F600000074692067616F206C69616E67206417
:100106007500000000000000000000000000000074
:100116006A69616E67206469206C69616E67206434
:100126007500000000000000000000000000746977
:10013600616F207365207775207368692077752055
:10014600736869206C696E67000000007469616FEE
:1001560020736520777520736869206C696E672047
:10016600777520736869000000007469616F2073F9
:1001760065206C696E6720777520736869207775CE
:1001860020736869000000007469616F2073652040
:10019600777520736869207775207368692077758D
:1001A6002073686900006365206C69616E6720775B
:1001B600656E20647500000000000000000000006D
:1001C600000000006365206C69616E67207169201C
:1001D600796100000000000000000000000000003F
:1001E60000006365206C69616E6720686169206242
:1001F6006120000000000000000000000000000078
:100206006B6169206D656E20796920657220736166
:100216006E20736900000000000000000000677592
:10022600616E206D656E0000000000000000000099
:100236000000000000000000000000006365206C64
:1002460069616E67206775616E67207A68616F20E5
:100256007169616E6720647500006775616E206262
:1002660069206365206C69616E670000000000000C
:100276000000000000000000000000000000000078
:100286000000000000000000000000000000000068
:100296000000000000000000000000000000000058
:1002A6000000000000000000000000000000000048
:1005F60000000000000000000000000000010204EE
:100606001415161718191A1B1C1D1E1F202122232C
:100616002425262728292A2B2C2D2E2F303132331C
:0E0626003435363738393A3B3C3D3E3F404193
:100E6000D2B57F057E007D007C00120F85C2B57F64
:100E7000057E007D007C00120F85D2B57F057E00C7
:100E80007D007C00120F85C2A17F057E007D007C65
:100E900000120F85D2A17F057E007D007C00020F2D
:010EA00085CC
:100A90007F061210127D357F171210077F0A7E0025
:100AA0007D007C00120F857F061210127D037F8966
:100AB0001210077F057E007D007C00120F857D43AC
:100AC0007FCF1210077F057E007D007C00120F850E
:100AD0007D027FCB1210077D0A7F11121007E4FD03
:100AE0007F1E1210077D3F7F191210077D487F1B64
:100AF0001210077D1F7F1D1210077F0A7E007D00E8
:100B00007C00120F857D047FCD1210077F057E00CB
:100B10007D007C00120F85E4FD7FB91210077D4F28
:0C0B20007FCF1210077DFF7F6F021007CF
:100CCB00120A90E4FD7FBD1210077D487F171210AA
:100CDB00077F0A7E007D007C00120F857D807F3CA4
:100CEB001210077D077F3E1210077DFF7F38121011
:100CFB00077D077F3A121007E4FD7F401210077D36
:100D0B00087F42121007E4FD7F441210077D087F15
:0F0D1B00461210077F017E007D007C00020F85CD
:1009F100E4F545C2A87F2B121012785AA607E4FD30
:100A01007F29121007E4FD7F02121007785AE630A1
:100A1100E4377FB2121012EF6421702D7FBF1210E4
:100A210012EF643570237FBA1210128F457E00D306
:100A3100EF9400748094804010D3EF9404748094F8
:100A410080500678597610800478597611E4FD7F3C
:100A51002B121007E4FD7F1C121007E4FD7F291201
:100A61001007E4FD7F02121007E4FD7F2B1210072F
:100A7100E4FD7FBA121007E4FD7FBC1210077D016F
:0E0A81007F08121007E4FD7F08121007D2A8AC
:010A8F002244
:100D2A00E4F547F548F547C3E54794057480948090
:100D3A00504012001C7F327E007D007C00120F851D
:100D4A00120947EF700280117F0A7E007D007C0045
:100D5A00120F85120B2CEF7010120E607F327E007C
:100D6A007D007C00120F85800575480180040547C7
:040D7A0080B5AF4849
:010D7E002252
:100EDC00E4F54DF54CC3E54C940A74809480501E97
:100EEC007FB2121012EF64217005754D01800F7FD7
:100EFC000A7E007D007C00120F85054C80D7AF4D1B
:010F0C0022C2
:03001C00020CCB08
:100B2C00C2A87D437F351210077D097F1C12100768
:100B3C007D207FBD1210077D017F081210077F01F9
:100B4C007E007D007C00120F85E4FD7F08121007EB
:100B5C007F017E007D007C00120F85120EDCEF7091
:100B6C0002FF227D0B7F1C1210077DFF7FB212103B
:100B7C00077F017E007D007C00120F857D067F378C
:100B8C001210077F017E007D007C00120F857D0610
:100B9C007F371210077F057E007D007C00120F85C9
:100BAC007D107F29121007E4FD7FBD121007D2A81B
:030BBC007F012294
:10094700754A01E4F549C3E54994327480948040BF
:10095700030209EE120EDCEF7005F54A0209EEE517
:100967004990060293FD7FC1121007E4FD7FC31271
:1009770010077D047F081210077F017E007D007C31
:1009870000120F85E4FD7F081210077F017E007DAE
:10099700007C00120F85E4F54BC3E54B941E748071
:1009A7009480502975F01EE549A42426F582E5F0C8
:1009B7003400F583E582254BF582E43583F583E43E
:1009C70093FD60097F05121007054B80CCAD4B7F67
:1009D700B91210077DFF7FB21210077D047F37120F
:0909E7001007054902094DAF4A51
:0109F00022E4
:050006007FC50210128D
:0B100700908100EFF0908000EDF022DF
:0B101200908100EFF0908000E0FF22D2
:07001400021125800110001C
:100F3900759850438920AE11AF12AB07AA06E4F9A0
:100F4900F8FF7EE1FDFC120E1C1208258F8B8F8D98
:070F5900D28ED2ACD2AF2210
:0E0FE100C2ACC2998F993099FDC299D2AC2250
:100F60008B488A49894AAB48AA49A94A12080C60A9
:100F700013054AE54A7002054914F912080CFF12DC
:050F80000FE180E222F8
:03002300020D7F4C
:100D7F00C0E0C0D075D008309845C29874132510C4
:100D8F00F8A6990510C3E510943174809480400340
:100D9F00751000C3E5109403748094804021741380
:100DAF002510F8E664F8701774122510F8E664F849
:100DBF00700D74112510F8E664F8700375C760D0D4
:040DCF00D0D0E0326E
:03000000020BBF31
:0C0BBF00787FE4F6D8FD75815B020C061F
:10080C00BB010689828A83E0225002E722BBFE02EA
:09081C00E32289828A83E493221D
:100E1C00C2D5E830E70FB2D5E4C39BFBE49AFAE401
:100E2C0099F9E498F8EC30E717B2D5120E52120883
:100E3C00B5E4C39BFBE49AFAE499F9E498F88003CF
:100E4C001208B530D50DE4C39FFFE49EFEE49DFD72
:040E5C00E49CFC22F4
:0E082500C3E49FFFE49EFEE49DFDE49CFC22E4
:100833007401FF3395E0FEFDFC080808E6CF2FF6B0
:1008430018E6CE3EF618E6CD3DF618E6CC3CF62289
:10085300D083D082F8E4937012740193700DA3A334
:1008630093F8740193F5828883E473740293686048
:06087300EFA3A3A380DF48
:100BCB00020C4BE493A3F8E493A34003F68001F2E9
:100BDB0008DFF48029E493A3F85407240CC8C3332B
:100BEB00C4540F4420C8834004F456800146F6DFFA
:100BFB00E4800B010204081020408090000EE47E7C
:100C0B00019360BCA3FF543F30E509541FFEE493EE
:100C1B00A360010ECF54C025E060A840B8E493A3B5
:100C2B00FAE493A3F8E493A3C8C582C8CAC583CAE0
:100C3B00F0A3C8C582C8CAC583CADFE9DEE780BE98
:01001B0000E4
:1008790075F008758200EF2FFFEE33FECD33CDCC36
:1008890033CCC58233C5829BED9AEC99E5829840B9
:100899000CF582EE9BFEED9AFDEC99FC0FD5F0D696
:1008A900E4CEFBE4CDFAE4CCF9A88222B800C1B9C0
:1008B9000059BA002DEC8BF084CFCECDFCE5F0CBFE
:1008C900F97818EF2FFFEE33FEED33FDEC33FCEB37
:1008D90033FB10D703994004EB99FB0FD8E5E4F9F2
:1008E900FA227818EF2FFFEE33FEED33FDEC33FCDF
:1008F900C933C910D7059BE99A4007EC9BFCE99AD3
:10090900F90FD8E0E4C9FAE4CCFB2275F010EF2F17
:10091900FFEE33FEED33FDCC33CCC833C810D70717
:100929009BEC9AE899400AED9BFDEC9AFCE899F852
:0E0939000FD5F0DAE4CDFBE4CCFAE4C8F922E5
:00000001FF
